:02000000662A6E
:1000080070082000A000803121008D1A1D282000D2
:100018003008003C031D12282F08963C03181A28A4
:1000280021008D162000AF01B0011D28AF0A031969
:10003800B00A21000D1A322820002B08003C031DAD
:1000480027282A08963C03182F2821000D1620007F
:10005800AA01AB013228AA0A0319AB0A21000E191A
:10006800472820002908003C031D3C282808963C06
:100078000318442821000E152000A801A9014728CB
:10008800A80A0319A90A200025082702031D4E28DB
:100098002408260203185528A401A5010130B1003F
:1000A8005828A40A0319A50A18309600FC309700AE
:0800B80011102008F0000900FE
:1000C00012001E00F003031D6028F103031D6028C9
:0200D000080026
:1000D2003B00AB012B122B17AB13AC01AE012E165A
:1000E200AE162E132E10AE10A901AA01A101A20173
:1000F2004030A5001F30A600A030A3000F30A4009E
:04010200AF1708002B
:100106003B009B011B121B179B139C019E011E1695
:100116009E161E131E109E1099019A0191019201BE
:100126008830950013309600C4309300093094004F
:040136009F17080007
:10013A00210099131917991619169911991019105E
:10014A0023008C0121008C0122008C0121008D01E9
:10015A0022008D0121008E0122008E0123008E01D2
:10016A008D018C018B0105303D00A6000430A700EB
:06017A0003309F000800A5
:100180003B00BB013B123B17BB13BC01BE013E163B
:10019000BE163E133E10BE10B901BA01B101B20144
:1001A000C430B5000930B600E230B3000430B4000A
:0401B000BF1708006D
:1001B400200091012100930111140B178B170800E3
:1001C400200098011816981618309600FC309700F5
:0601D40099011814080057
:1001DA009F3020002C07840082302D3D85000008C6
:1001EA00F1007108AE008030710203181E299F3099
:1001FA002C07840082302D3D85000008F10071082B
:10020A00A700A60101302C07F00000302D3DF100B7
:10021A009F30700784008230713D85000008F0002D
:10022A007008A6040030A7040230AC070030AD3DC8
:10023A00652AF0302E05F1007108A2000F302E0554
:10024A00A1007108803A031D482935293B009B13F8
:10025A0043293B00AB1343293B00BB1343294329E2
:10026A0020002108003A03192B292108013A031911
:10027A002E292108023A0319312934292000AC0A0F
:10028A000319AD0A642A2208903A031D532A013041
:10029A00B1003F2AAF01B00121008D1201302000C8
:1002AA002C07F00000302D3DF1009F307007F6005A
:1002BA008230713DF70076088400770885000008CF
:1002CA00F3008930F4008530F5007308F000F1017D
:1002DA00F035F10D7008740784007108753D8500CA
:1002EA0000083B009500013100089600760884005A
:1002FA00770885000008F3007308F000F101F03573
:10030A00F10D7008740784007108753D85000008B6
:10031A00F30001310008F4007308F0007408F100DA
:10032A00F136F00C70089300710894009F179B1720
:10033A004D2A2000AA01AB0121000D120130200034
:10034A002C07F00000302D3DF1009F307007F600B9
:10035A008230713DF700760884007708850000082E
:10036A00F3008930F4008530F5007308F000F101DC
:10037A00F035F10D7008740784007108753D850029
:10038A0000083B00A50001310008A6007608840099
:10039A00770885000008F3007308F000F101F035D2
:1003AA00F10D7008740784007108753D8500000816
:1003BA00F30001310008F4007308F0007408F1003A
:1003CA00F136F00C7008A3007108A400AF17AB1740
:1003DA004D2A2000A801A90121000E110130200098
:1003EA002C07F00000302D3DF1009F307007F60019
:1003FA008230713DF700760884007708850000088E
:10040A00F3008930F4008530F5007308F000F1013B
:10041A00F035F10D7008740784007108753D850088
:10042A0000083B00B50001310008B60076088400D8
:10043A00770885000008F3007308F000F101F03531
:10044A00F10D7008740784007108753D8500000875
:10045A00F30001310008F4007308F0007408F10099
:10046A00F136F00C7008B3007108B400BF17BB175F
:10047A004D2A4D2A20002108003A03194F29210844
:10048A00013A03199E292108023A0319EE293E2A44
:10049A0020000230AC070030AD3D642A2208F03A51
:1004AA00031D592AA301652A2208E03A031D642A7A
:1004BA00AC01AD01A401A501A601A701652AED2899
:0204CA00080028
:1004CC002000A101A201A301A401A501A601A7017D
:1004DC00A801A901AA01AB01AC01AD01AE01AF01AC
:1004EC00B0010130B1009D200F30FB003530FC0015
:1004FC005130FD00FD0B802AFC0B802AFB0B802A5F
:10050C0083206920C020DA2001302000A300E220E3
:10051C0020002308013A031D992A31080319982A4F
:10052C00ED20B1019D2A3B009B13AB13BB138E2A0C
:02053C009E2AF5
:10053E0090343034913424340034F2348034003426
:10054E000734903439340034F2348134803400343A
:10055E00073490342D3491343734923429340034A6
:10056E00F234813400340734913435340034F234AB
:10057E0080348234813400340734903424349134FE
:10058E0030340134EC3480340034073490342D345C
:10059E00923429340034F2348134003407349134E7
:1005AE0030340034753481340034073491343034AF
:1005BE0000347534803482348134003407349034FE
:1005CE002434913430340034F2348134003407341E
:1005DE00913439340034F2348034813400340734A9
:1005EE0090342D3491343734923429340034F2342B
:1005FE00813400340734913435340034F23480348D
:10060E0082348134003407349034263491343234B9
:10061E000134EC3480340034073490342E34923468
:10062E0029340134EC34813480348234003407347C
:10063E0090343234913426340034F2348034003421
:10064E00073490343A340034F23481348034003438
:10065E00073490342E3491343934923429340034A2
:10066E00F234813400340734913437340034F234A8
:10067E0080348234813400340734903424349134FD
:10068E0034340134EC3480340034073490342B3459
:10069E00923428340134EC34813480348234003482
:1006AE00073490343C34913424340034F2348034A2
:1006BE000034073490343C340034F23481348034C6
:1006CE000034073490342B3491343A349234283435
:1006DE000034F2348134003407349134373400342A
:1006EE00F23480348234813400340734903424342C
:1006FE00913439340134EC3480340034073490347E
:10070E002D34923429340134EC34813480348234E3
:10071E000034073490343034913424340034F234BD
:10072E00803400340734903439340034F234813458
:10073E0080340034073490342D349134373492346D
:10074E0029340034F2348134003407349134353492
:10075E000034F234803482348134003407349034DF
:10076E002434913430340134EC3480340034073482
:10077E0090342D34923429340134EC348134803465
:10078E0082340034073490343034913424340034BD
:10079E00F234803400340734903439340034F23477
:1007AE00813480340034073490342D34913437340E
:1007BE00923429340034F2348134003407349134C5
:1007CE0035340034F23480348234813400340734CA
:1007DE0090342634913432340134EC348034003485
:1007EE00073490342E34923429340034F234813468
:1007FE0000340734913432340034F234803482348D
:10080E008134003407349034263491343234003439
:10081E00F23481340034073491343A340034F234F3
:10082E00803481340034073490342E34913439348A
:10083E00923429340034F234813400340734913444
:10084E0037340034F2348034823481340034073447
:10085E009034243491343C340034F23481340034F6
:10086E00073491343C340034F23480348134003413
:10087E00073490342D3491343C349234293400347E
:10088E00F23481340034073491343C340034F23481
:10089E0080348234813400340734903424349134DB
:1008AE003E340034F23481340034073491343C3415
:1008BE000034F234803481340034073490342B34D5
:1008CE0091343A34923428340034F2348134003482
:1008DE000734913437340034F23480348234813426
:1008EE000034073490342434913435340034F234E7
:1008FE0081340034FA3480340034073490343C347C
:10090E0091342B34923428340134EC3480348134D5
:10091E008234003407349034393491342434003422
:10092E00F234803400340734903439340034F234E5
:10093E00813480340034073490342D34913439347A
:10094E00923429340134EC348134803482340034CE
:10095E00073490343934913424340034F2348034F2
:10096E0000340734903439340034F2348134803416
:10097E000034073490342D34913439349234293480
:10098E000134EC34813480348234003407349034B2
:10099E003934913424340034F23480340034073442
:1009AE0090343C340034F2348134803400340734D3
:1009BE0090342D3491343534923429340034F23459
:1009CE00813400340734913437340034F2348034B7
:1009DE0082348134003407349034243491343934E1
:1009EE000134EC3480340034073490342D34923496
:1009FE0029340134EC3481348034823400340734A9
:100A0E0090343A34913426340034F2348034003445
:100A1E00073490343A340034F23481348034003464
:100A2E00073490342E3491343A34923429340034CD
:100A3E00F23481340034073491343A340034F234D1
:100A4E008034823481340034073490342434913429
:100A5E003A340034F234813400340734913439346A
:100A6E000034F234803481340034073490342D3421
:100A7E0091343934923429340034F23481340034D0
:100A8E0007349134393400347534813400340734EA
:100A9E0091343934003475348034823481340034E6
:100AAE0007349034243491343C340034F23481349D
:100ABE000034073491343C340034F23480348134C1
:100ACE000034073490342B3491343A349234283431
:100ADE000034F23481340034073491343734003426
:100AEE00F2348034823481340034073490342D341F
:100AFE0091343534923429340334E03481348034E3
:040B0E008234F03409
:100B1200E534EE347C34E134D434D434E234C834B1
:100B22009C34BD34F834B234EC34A83471349F347C
:100B32007E3496340C348E34133486348D347E34C1
:100B420073347734BE3470346A346A347134643442
:100B5200CE345E347C34593476345434B9344F3420
:100B62003F344B34063447340A34433447343F3439
:100B7200BA343B345F343834353435343934323472
:100B820067342F34BE342C343B342A34DD342734DA
:100B9200A03425348334233485342134A4341F34DF
:100BA200DD341D3430341C349B341A341D34193472
:100BB200B43417345F3416341E341534EF3413341E
:100BC200D0341234C2341134C3341034D2340F341A
:100BD200EF340E3418340E344E340D348F340C345A
:100BE200DA340B3430340B348F340A34F8340934A9
:100BF20068340934E134083462340834E93407349F
:100C0200783407340C340734A734063448340634B5
:100C1200ED3405349834053448340534FC34043456
:100C2200B43404347134043431340434F5340334C8
:100C3200BC3403348634033454340334243403344C
:100C4200F7340234CC340234A43402347E34023415
:100C52005A3402343934023419340234FB34013444
:100C6200DE340134C3340134AA3401349234013401
:100C72007C34013466340134523401343F3401345B
:100C82002D3401341D3401340D340134FE3400346A
:100C9200EF340034E2340034D5340034C934003443
:100CA200BE340034B3340034A9340034A0340034E8
:100CB200973400348F340034873400347F34003466
:100CC20078340034713400346B34003465340034C9
:100CD2005F3400345A340034553400345034003414
:100CE2004C3400344834003444340034403400344A
:100CF2003C34003439340034363400343334003474
:100D0200303400342D3400342B34003400340034B9
:020000040001F9
:04000E00A00E071F1A
:00000001FF
