:02000000942A40
:1000080070082000A000803121008D1A1D282000D2
:100018003808003C031D12283708963C03181A2894
:1000280021008D162000B701B8011D28B70A031951
:10003800B80A21000D1A322820003A08003C031D96
:1000480027283908963C03182F2821000D16200070
:10005800B901BA013228B90A0319BA0A21000E19DE
:10006800472820003C08003C031D3C283B08963CE0
:100078000318442821000E152000BB01BC014728A5
:10008800BB0A0319BC0A200034082502031D4E28A8
:100098003308240203185528B301B4010130A30022
:1000A8005828B30A0319B40A18309600FC30970090
:0800B80011102008F0000900FE
:1000C00012001E00F003031D6028F103031D6028C9
:0200D000080026
:1000D2003B00AB012B122B17AB13AC01AE012E165A
:1000E200AE162E132E10AE10A901AA01A101A20173
:1000F2004030A5001F30A600A030A3000F30A4009E
:04010200AF1708002B
:100106003B009B011B121B179B139C019E011E1695
:100116009E161E131E109E1099019A0191019201BE
:100126008830950013309600C4309300093094004F
:040136009F17080007
:10013A00210099131917991619169911991019105E
:10014A0023008C0121008C0122008C0121008D01E9
:10015A0022008D0121008E0122008E0123008E01D2
:10016A008D018C018B0105303D00A6000430A700EB
:06017A0003309F000800A5
:100180003B00BB013B123B17BB13BC01BE013E163B
:10019000BE163E133E10BE10B901BA01B101B20144
:1001A000C430B5000930B600E230B3000430B4000A
:0401B000BF1708006D
:1001B400200091012100930111140B178B170800E3
:1001C400200098011816981618309600FC309700F5
:0601D40099011814080057
:1001DA00200027083D07840028083E3D85000008C6
:1001EA00F1007108A6008030710203181C29270843
:1001FA003D07840028083E3D85000008F10071088B
:10020A00A500A40101302707F0000030283DF100C5
:10021A0070083D07840071083E3D85000008A4046B
:10022A000030A5040230A7070030A83D932AF03019
:10023A002605F1007108A1000F302605A2007108F9
:10024A00803A031D462933293B009B1341293B0071
:10025A00AB1341293B00BB13412941292000220845
:10026A00003A031929292208013A03192C292208DC
:10027A00023A03192F2932292000A70A0319A80ACA
:10028A00922A2108903A031D512A0130A3003D2ADF
:10029A00B701B80121008D12013020002707F000B4
:1002AA000030283DF10070083D07F60071083E3D18
:1002BA00F70076088400770885000008F3005430B8
:1002CA00F4009230F5007308F000F101F035F10DF9
:1002DA007008740784007108753D850000083B00AA
:1002EA009500013100089600760884007708850099
:1002FA000008F3007308F000F101F035F10D700801
:10030A00740784007108753D85000008F300013107
:10031A000008F4007308F0007408F100F136F00CDC
:10032A0070089300710894009F179B174B2A2000AE
:10033A00B901BA0121000D12013020002707F0008F
:10034A000030283DF10070083D07F60071083E3D77
:10035A00F70076088400770885000008F300543017
:10036A00F4009230F5007308F000F101F035F10D58
:10037A007008740784007108753D850000083B0009
:10038A00A50001310008A6007608840077088500D8
:10039A000008F3007308F000F101F035F10D700860
:1003AA00740784007108753D85000008F300013167
:1003BA000008F4007308F0007408F100F136F00C3C
:1003CA007008A3007108A400AF17AB174B2A2000CE
:1003DA00BB01BC0121000E11013020002707F000EB
:1003EA000030283DF10070083D07F60071083E3DD7
:1003FA00F70076088400770885000008F300543077
:10040A00F4009230F5007308F000F101F035F10DB7
:10041A007008740784007108753D850000083B0068
:10042A00B50001310008B600760884007708850017
:10043A000008F3007308F000F101F035F10D7008BF
:10044A00740784007108753D85000008F3000131C6
:10045A000008F4007308F0007408F100F136F00C9B
:10046A007008B3007108B400BF17BB174B2A4B2A98
:10047A0020002208003A03194D292208013A0319DB
:10048A009C292208023A0319EC293C2A200002304E
:10049A00A7070030A83D922A2108F03A031D8D2AA9
:1004AA003608043C03185B2AB6015C2AB60A3608E9
:1004BA00F000F101F035F10D2930700784000030A9
:1004CA00713D85000008BD0001310008BE00B7017A
:1004DA00B801B901BA01BB01BC0121008D120D128C
:1004EA000E112000A701A801B301B401A401A501BE
:1004FA00A101A2015230FB002B30FC000030FD00AC
:10050A00FD0B852AFC0B852AFB0B852A0000932A02
:0E051A002108E03A031D922A932AED280800DA
:100528008831882780319D200F30FB003530FC0052
:100538005130FD00FD0B9E2AFC0B9E2AFB0B9E2AC8
:1005480083206920C020DA2020002908BD002A085D
:10055800BE000130B500E22020003508013A031D35
:10056800BB2A23080319BA2AED20A301C02A3B009D
:0C0578009B13AB13BB136300B02AC12A15
:101F10006C3084008F3085001C30F0000130F100FF
:101F20002130860000308700803160208831080031
:100586000334E83490342D340134F4348034903418
:1005960032340134F4348034903432340034FA3452
:1005A6008034903434340034FA3480349034323425
:1005B600913426340034FA348034903431340034A3
:1005C600FA348134803490342F3491342B3401340E
:1005D600F4348034813490342F3491342B34003405
:1005E600FA34813491342D340034FA348034813431
:1005F60090342F3491342B340034FA3481349134CE
:100606002A340034FA3480348134903434349134CA
:1006160028340134F43480348134903434349134C1
:1006260028340034FA348034903436340034FA34C2
:10063600813480349034343491342C3492341C34E4
:100646000034FA348034903432340034FA3481344D
:10065600823480349034313491342D3492342134C0
:100666000134F43480348134823490342D3491341E
:1006760021340034FA348134913423340034FA348A
:100686008034813490342D34913421340034FA345A
:10069600813491341F340034FA34803481349034F8
:1006A600363491342D3492341E340134F43480348B
:1006B600813482349034363491341E340034FA3422
:1006C6008034903437340034FA34813480349034B2
:1006D6003634913422340034FA348034903434344D
:1006E6000034FA34813480349034323491342334F3
:1006F6000134F4348034813490342F3491342334EB
:100706000034FA348134913425340034FA34803498
:10071600813490342D34913423340034FA348134C6
:10072600913421340034FA348034813490342F34B7
:1007360091342B3492341F340134F43480348134B0
:1007460082349034343491342F3492342B3401343F
:10075600F4348034813482349034313491342B34FF
:10076600923421340134F434803481348234903428
:10077600323491342A34923426340334E8348034C3
:100786008134823490342D340134F43480349034FE
:1007960032340134F4348034903432340034FA3450
:1007A6008034903434340034FA3480349034323423
:1007B600913426340034FA348034903431340034A1
:1007C600FA348134803490342F3491342B3401340C
:1007D600F4348034813490342F3491342B34003403
:1007E600FA34813491342D340034FA34803481342F
:1007F60090342F3491342B340034FA3481349134CC
:100806002A340034FA3480348134903434349134C8
:1008160028340134F43480348134903434349134BF
:1008260028340034FA348034903436340034FA34C0
:10083600813480349034343491342C3492341C34E2
:100846000034FA348034903432340034FA3481344B
:10085600823480349034313491342D3492342134BE
:100866000134F43480348134823490342D3491341C
:1008760021340034FA348134913423340034FA3488
:100886008034813490342D34913421340034FA3458
:10089600813491341F340034FA34803481349034F6
:1008A600363491342D3492341E340134F434803489
:1008B600813482349034363491341E340034FA3420
:1008C6008034903437340034FA34813480349034B0
:1008D6003634913422340034FA348034903434344B
:1008E6000034FA34813480349034323491342334F1
:1008F6000134F4348034813490342F3491342334E9
:100906000034FA348134913425340034FA34803496
:10091600813490342D34913423340034FA348134C4
:10092600913421340034FA348034813490342F34B5
:1009360091342B3492341F340134F43480348134AE
:1009460082349034343491342F3492342B3401343D
:10095600F4348034813482349034313491342B34FD
:10096600923421340134F434803481348234903426
:10097600323491342A34923426340334E8348034C1
:1009860081348234903432340134F43480349034F7
:10099600373491342F3492342B340134F434803488
:1009A600903437340034FA34803490343934003497
:1009B600FA348134823480349034373491342F348D
:1009C60092342B340034FA34803490343634003484
:1009D600FA3481348234803490343434913430346F
:1009E60092342B340134F43480348134823490349C
:1009F600343491342B34923424340034FA3482342F
:100A0600923426340034FA348034823490343434C8
:100A1600923424340034FA34823492342334003449
:100A2600FA34813480348234903439349134343415
:100A3600923430340134F434803490343934003410
:100A4600FA34803490343B340034FA3481348234BE
:100A56008034903439349134343492343034003420
:100A6600F53481340034043480349034373400341F
:100A7600FA348234803490343634913432349234B9
:100A860026340134F4348034813482349034323460
:100A9600913426340034FA348134913428340034C5
:100AA600FA3480348134903432349134263400342C
:100AB600FA348134913424340034FA348034813465
:100AC60090343B3491342F34923432340134F4343C
:100AD600803490343B340034FA34803490343C34DF
:100AE6000034FA3481348234803490343B34913487
:100AF6002F34923427340034FA3480349034393425
:100B06000034FA348134823480349034373491346A
:100B1600343492341C340134F434803481348234D5
:100B26009034343491342F3492342B340034FA34E4
:100B36000034FA348034813482349034323491343F
:100B46002B34923428340034FA34823492342634E6
:100B56000034FA348034813482349034343491341D
:100B6600303492342B340134F4348034813482347A
:100B76009034393491343434923430340134F4348A
:100B86008034813482349034363491343034923423
:100B96002D340134F4348034813482349034373443
:100BA60091342F3492342B340334E8348034813436
:100BB6008234903432340134F4348034903437340F
:100BC60091342F3492342B340134F43480349034FD
:100BD60037340034FA348034903439340034FA34FB
:100BE6008134823480349034373491342F349234C3
:100BF6002B340034FA348034903436340034FA34EA
:100C060081348234803490343434913430349234A4
:100C16002B340134F43480348134823490343434C7
:100C260091342B34923424340034FA34823492349E
:100C360026340034FA348034823490343434923496
:100C460024340034FA348234923423340034FA34AF
:100C5600813480348234903439349134343492344B
:100C660030340134F4348034903439340034FA3476
:100C7600803490343B340034FA3481348234803406
:100C86009034393491343434923430340034F53479
:100C96008134003404348034903437340034FA34E8
:100CA600823480349034363491343234923426345B
:100CB6000134F434803481348234903432349134C3
:100CC60026340034FA348134913428340034FA342A
:100CD6008034813490343234913426340034FA34FA
:100CE6008134913424340034FA348034813490349D
:100CF6003B3491342F34923432340134F43480341A
:100D060090343B340034FA34803490343C3400342C
:100D1600FA3481348234803490343B3491342F3425
:100D2600923427340034FA34803490343934003421
:100D3600FA34813482348034903437349134343404
:100D460092341C340134F434803481348234903447
:100D5600343491342F3492342B340034FA34003442
:100D6600FA348034813482349034323491342B34E2
:100D7600923428340034FA348234923426340034DF
:100D8600FA348034813482349034343491343034BB
:100D960092342B340134F4348034813482349034E8
:100DA600393491343434923430340134F434803468
:100DB60081348234903436349134303492342D3444
:100DC6000134F434803481348234903437349134AD
:100DD6002F3492342B340334E83480348134823413
:100DE60090342D340134F434803490343234013468
:100DF600F4348034903432340034FA34803490340D
:100E060034340034FA348034903432349134263415
:100E16000034FA348034903431340034FA34813476
:100E2600803490342F3491342B340134F4348034AC
:100E3600813490342F3491342B340034FA34813495
:100E460091342D340034FA348034813490342F3484
:100E560091342B340034FA34813491342A340034FA
:100E6600FA34803481349034343491342834013463
:100E7600F43480348134903434349134283400345A
:100E8600FA348034903436340034FA348134803481
:100E96009034343491342C3492341C340034FA3483
:100EA6008034903432340034FA34813482348034DD
:100EB6009034313491342D34923421340134F43465
:100EC60080348134823490342D349134213400348A
:100ED600FA348134913423340034FA348034813442
:100EE60090342D34913421340034FA3481349134E1
:100EF6001F340034FA3480348134903436349134DB
:100F06002D3492341E340134F434803481348234E6
:100F16009034363491341E340034FA3480349034AC
:100F260037340034FA348134803490343634913492
:100F360022340034FA348034903434340034FA34B1
:100F46008134803490343234913423340134F4348F
:100F56008034813490342F34913423340034FA347D
:100F66008134913425340034FA3480348134903419
:100F76002D34913423340034FA34813491342134BD
:100F86000034FA348034813490342F3491342B3445
:100F960092341F340134F4348034813482349034F2
:100FA600343491342F3492342B340134F434803475
:100FB600813482349034313491342B349234213458
:100FC6000134F434803481348234903432349134B0
:100FD6002A34923426340334E8348034813482341B
:020FE600F034E5
:101000009034363491343E34923426340134D93419
:1010100080348134823400341A3490343934913439
:101020003D34923426340134633480348134823444
:10103000003413349034373491343D3492342634B0
:101040000034753480348134823400340734903471
:10105000363491343934923426340234C7348034EF
:10106000813482340034263490343434913437342B
:1010700092341F340034EC348034813482340034B0
:101080000D34903432349134363492342134013476
:1010900063348234003413349234213400346234A3
:1010A0008034813400341A349034313491343434FF
:1010B00001345C34823400341A3492342B340034DA
:1010C0006234803481340034123482340034073482
:1010D000903432349134263492342A340034EC344F
:1010E000813482340134DB3480340034263490344B
:1010F00032349134393492342A340034EC3480342C
:101100008134823400340D349034373491343B349C
:1011100092342B340234C734803481348234003426
:1011200026349034373491343B3492342B340034A9
:10113000EC3480348134823400340D3490343434CF
:1011400091343D3492342D340234C73480348134A8
:101150008234003426349034343491343D34923423
:101160002D340034EC3480348134823400340D3436
:101170009034363491343E34923426340234C734B9
:1011800080348134823400342634903436349134BF
:101190003E34923426340034EC348034813482344A
:1011A00000340D349034363491343E349234263445
:1011B0000034EC348034813400340D3490343934CC
:1011C00091343D340034DF34823400340C348034C4
:1011D000813400340D349034373491343B349234BC
:1011E00026340034EC348034813400340D349034AF
:1011F0003634913439340034DF34823400340C34E2
:101200008034813400340D349034363491343934A0
:1012100092342634013463348034813400341334FE
:10122000903434349134373400347534803481341C
:101230000034073490343234913436340034D334AB
:101240008234003419348034813400340D349034C5
:10125000363491343E34923426340034EC348034C5
:101260008134823400340D349034363491343E3439
:10127000923426340034EC348034813400340D341C
:101280009034393491343D340034DF3482340034C6
:101290000C348034813400340D349034373491343C
:1012A0003B34923426340034EC34803481340034BE
:1012B0000D3490343634913439340034DF34823490
:1012C00000340C348034813400340D34903436349E
:1012D0009134393492342634013463348034813487
:1012E000003413349034343491343734003475344A
:1012F00080348134003407349034323491343634BD
:101300000034D334823400341934803481340034CE
:101310000D3490343234913436340034EC3480342B
:10132000813400340D349034323491343634923474
:1013300026340034EC348034813400340D3490345D
:101340003234913436340034DF34823400340C3497
:101350008034813400340D34903432349134363456
:101360000034EC348034813400340D349034323421
:101370009134363400347534803481340034073489
:1013800090343434913439340034753480348134B9
:10139000003407349034363491343934923426345E
:1013A0000034EC34823400340D349234263400346A
:1013B000EC34823400340D34923426340034D33487
:1013C0008034813400341934823400340D34903444
:1013D00034349134373492342634003475348034C4
:1013E000813400340734903432349134363400344C
:1013F0006F3482340034063480348134003407344E
:10140000903431349134343492342D340034EC340B
:101410008034813400340D34903431349134343498
:101420000034EC348034813400340D349034313461
:10143000913434340034D334823400341934803459
:10144000813400340D349034313491343434923456
:1014500021340034753480348134003407349034BE
:1014600032349134363400346F34823400340634EC
:101470008034813400340734903434349134373438
:10148000923421340034EC34823400340D349234FC
:1014900021340034EC34823400340D34923421345D
:1014A0000034D3348034813400341934823400342D
:1014B0000D34903432349134363492342134003443
:1014C00075348034813400340734903431349134AD
:1014D000343400346F348234003406348034813440
:1014E0000034073490343234913426340034EC34F0
:1014F000803400340D349034363492343E34013428
:10150000CD34813400340C348034823400341A34C5
:101510009034373491343B34923426340034EC34F4
:1015200080348134823400340D3490343634913434
:1015300039349234263401346334803481340034B5
:101540001334903434349134373400347534803467
:1015500081340034073490343234913436340034DA
:10156000D3348234003419348034813400340D345F
:10157000903434349134373492341F340034EC34A2
:1015800080348134823400340D34903432349134D8
:101590003634923421340134D93480348134823465
:1015A00000341A3490343134913434349234213448
:1015B0000134D93480348134823400341A34903484
:1015C00032349134263492342A340334B43480349F
:0615D00081348234F03486
:1015D60090343034913424340034F234803400347E
:1015E6000734903439340034F23481348034003492
:1015F600073490342D3491343734923429340034FE
:10160600F234813400340734913435340034F23402
:101616008034823481340034073490342434913455
:1016260030340134EC3480340034073490342D34B3
:10163600923429340034F23481340034073491343E
:101646003034003475348134003407349134303406
:101656000034753480348234813400340734903455
:101666002434913430340034F23481340034073475
:10167600913439340034F234803481340034073400
:1016860090342D3491343734923429340034F23482
:10169600813400340734913435340034F2348034E4
:1016A6008234813400340734903426349134323411
:1016B6000134EC3480340034073490342E349234C0
:1016C60029340134EC3481348034823400340734D4
:1016D60090343234913426340034F2348034003479
:1016E600073490343A340034F23481348034003490
:1016F600073490342E3491343934923429340034FA
:10170600F234813400340734913437340034F234FF
:101716008034823481340034073490342434913454
:1017260034340134EC3480340034073490342B34B0
:10173600923428340134EC348134803482340034D9
:10174600073490343C34913424340034F2348034F9
:101756000034073490343C340034F234813480341D
:101766000034073490342B3491343A34923428348C
:101776000034F23481340034073491343734003481
:10178600F234803482348134003407349034243483
:10179600913439340134EC348034003407349034D5
:1017A6002D34923429340134EC348134803482343B
:1017B6000034073490343034913424340034F23415
:1017C600803400340734903439340034F2348134B0
:1017D60080340034073490342D34913437349234C5
:1017E60029340034F23481340034073491343534EA
:1017F6000034F23480348234813400340734903437
:101806002434913430340134EC34803400340734D9
:1018160090342D34923429340134EC3481348034BC
:101826008234003407349034303491342434003414
:10183600F234803400340734903439340034F234CE
:10184600813480340034073490342D349134373465
:10185600923429340034F23481340034073491341C
:1018660035340034F2348034823481340034073421
:1018760090342634913432340134EC3480340034DC
:10188600073490342E34923429340034F2348134BF
:1018960000340734913432340034F23480348234E4
:1018A6008134003407349034263491343234003491
:1018B600F23481340034073491343A340034F2344B
:1018C600803481340034073490342E3491343934E2
:1018D600923429340034F23481340034073491349C
:1018E60037340034F234803482348134003407349F
:1018F6009034243491343C340034F234813400344E
:10190600073491343C340034F2348034813400346A
:10191600073490342D3491343C34923429340034D5
:10192600F23481340034073491343C340034F234D8
:101936008034823481340034073490342434913432
:101946003E340034F23481340034073491343C346C
:101956000034F234803481340034073490342B342C
:1019660091343A34923428340034F23481340034D9
:101976000734913437340034F2348034823481347D
:101986000034073490342434913435340034F2343E
:1019960081340034FA3480340034073490343C34D3
:1019A60091342B34923428340134EC34803481342D
:1019B600823400340734903439349134243400347A
:1019C600F234803400340734903439340034F2343D
:1019D600813480340034073490342D3491343934D2
:1019E600923429340134EC34813480348234003426
:1019F600073490343934913424340034F23480344A
:101A060000340734903439340034F234813480346D
:101A16000034073490342D349134393492342934D7
:101A26000134EC3481348034823400340734903409
:101A36003934913424340034F23480340034073499
:101A460090343C340034F23481348034003407342A
:101A560090342D3491343534923429340034F234B0
:101A6600813400340734913437340034F23480340E
:101A76008234813400340734903424349134393438
:101A86000134EC3480340034073490342D349234ED
:101A960029340134EC348134803482340034073400
:101AA60090343A34913426340034F234803400349D
:101AB600073490343A340034F234813480340034BC
:101AC600073490342E3491343A3492342934003425
:101AD600F23481340034073491343A340034F23429
:101AE6008034823481340034073490342434913481
:101AF6003A340034F23481340034073491343934C2
:101B06000034F234803481340034073490342D3478
:101B160091343934923429340034F2348134003427
:101B26000734913439340034753481340034073441
:101B3600913439340034753480348234813400343D
:101B460007349034243491343C340034F2348134F4
:101B56000034073491343C340034F2348034813418
:101B66000034073490342B3491343A349234283488
:101B76000034F2348134003407349134373400347D
:101B8600F2348034823481340034073490342D3476
:101B960091343534923429340334E034813480343A
:041BA6008234F03461
:101BAA0090343734913430340334843492343934B1
:101BBA0000341034803401341B3490343734003408
:101BCA0004348234023453349234343481349134B8
:101BDA00303400340B3480340634FC3490343734D7
:101BEA008134913430340034233482340334603401
:101BFA009234393400341034803401341B34903434
:101C0A003734003404348234023453349234343452
:101C1A0081349134303400340B34803402344C34FF
:101C2A00813490342F3402345834803490342D3433
:101C3A000134FC34823400345B3491343E348034D1
:101C4A0090342B340434B034813491343E34023429
:101C5A00583492343B34803490342B3400340B346F
:101C6A0081340434A434803490342B34023458340C
:101C7A0091343C3480349034303400342334823408
:101C8A0004348C34813491343C34023458349234E0
:101C9A00373480349034303400340B348134063491
:101CAA00A034823400345B34913439348034903433
:101CBA0029340434B03481349134393402345834F8
:101CCA0092343C3480349034293400340B348134D7
:101CDA000334783491343B34003410348234013480
:101CEA001B3492343934003404348134023453348A
:101CFA009134373480349034303400340B348234A5
:101D0A000334783492343934003410348134013451
:101D1A001B3491343734003404348234023453345B
:101D2A009234343480349034303400340B34813477
:101D3A000634A034823400345B349134393480342C
:101D4A00903429340434B03481349134393402342F
:101D5A00583492343C3480349034293400340B346F
:101D6A0081340334783491343B340034103482346F
:101D7A0001341B349234393400340434813402344B
:101D8A0053349134373480349034303400340B3443
:101D9A008234033478349234393400341034813440
:101DAA0001341B349134373400340434823402341D
:101DBA0053349234343480349034303400340B3415
:101DCA00813402344C34803490342F340234583401
:101DDA00803490342D340134FC34823400345B3442
:101DEA0091343E34803490342B340434B03481340A
:101DFA0091343E340234583492344134803490342D
:101E0A002B3400340B34813402344C3491343E3454
:101E1A0000340B34823402344C3492343B34003470
:101E2A000B34813402344C3491343C348034903451
:101E3A00303400340B3482340634FC349234403467
:101E4A008034903430340034233481340634893475
:101E5A00823400345B3491343C34803490343034EE
:101E6A00023458349234373400340B348134023417
:101E7A004C349134343400340B34823402344C34CC
:101E8A0092343734803490342B3400340B34813418
:101E9A0003347834913435340034103482340134C4
:101EAA001B349234323400340434813402345334CF
:101EBA009134303480349034303400340B348234EA
:0E1ECA000634A0348034813400345B34F034AC
:021ED8000034D4
:021EDA000034D2
:021EDC000134CF
:041EDE000034003498
:021EE2000034CA
:041EE4000034003492
:101EE80000349034C3348234D5348D34EB348A349E
:041EF80000348834F6
:041EFC00003400347A
:021F00000034AB
:021F02000034A9
:041F04000034003471
:041F0800003400346D
:041F0C000034003469
:1020000001340234903424349134283492342B3403
:102010009334303404340A34803481348234833449
:10202000903424349134283492342B3402340534DF
:10203000803481348234903424349134283492347E
:102040002B34023405348034813482349034233488
:1020500091342B349234323404340A348034813451
:1020600082349034233491342B34033489348034D3
:1020700081340034813490342434913430349234B7
:102080003434023405348134823491342B34923424
:102090003234023405348034813482349034303424
:1020A0009134343402340534803481349034323401
:1020B00091343534023405348034813490342B34F7
:1020C000913430349234343404340A3480348134DA
:1020D000823490342B349134323403348934803454
:1020E00081340034813490342D34913430340434CC
:1020F0000A34803481349034263491342F340234BD
:102100000534803481349034263491342D340234B3
:1021100005348034813490341F3491342F340234A8
:102120000534803481349034213491343034023495
:102130000534803481349034233491343234023481
:10214000053480348134903424349134343401346F
:10215000AF34803481340034563490342634913492
:102160002B3492342F3404340A3480348134823452
:102170009034263491342D3404340A34803481343C
:1021800090341F3491342B3405348E3480348134B0
:10219000023486349034283491342B3492343034E1
:1021A0009334373404340A348034813482348334B1
:1021B0009034263491342B3492342F349334353484
:1021C00002340534803481348234833490342B34A7
:1021D00091343034923434340234053480348134D0
:1021E00082349034263491342B3492342F34933407
:1021F000353404340A348034813482348334903466
:10220000243491342B3492343034933434340334C2
:10221000893480348134823483340034813490347E
:10222000233491342B3492343234023405348034E4
:10223000813482349034243491342B3492343434C5
:10224000023405348034813482349034283491341B
:102250002B34923430340234053480348134823467
:102260009034293491342D3492343234023405348C
:1022700080348134823490341F3491342B3492343E
:102280002F340234053480348134013402348234F2
:1022900090342D3401340234803490342B340134A2
:1022A000AF34803400345634903428349134303490
:1022B00002340534803481349034283491343034FD
:1022C00002340534803481349034263491342F34F0
:1022D00002340534803481349034283491343034DD
:1022E00002340534803481349034293491343234CA
:1022F00002340534803481349034283491343034BD
:1023000004340A34803481349034283491342B34AA
:102310000134AF3480348134003456349034243462
:10232000913434340234053480348134903424348C
:10233000913434340234053480348134903423347D
:10234000913432340234053480348134903424346E
:10235000913434340234053480348134903426345A
:10236000913435340234053480348134903424344B
:102370009134343404340A34803481349034233436
:10238000913432340134AF348034813400345634E3
:10239000903424349134343402340534803481341C
:1023A00090342634913435340034CC340034D13474
:1023B00000346A3480348134903424349134343499
:1023C000003468340034D4340034D634803481345A
:1023D00090342334913432340034D5340034DA3438
:1023E00000346F348034813490342134913430346B
:1023F00000346C340034DE340034E0348034813412
:1024000090341F3491342F340034E0340034E534F8
:1024100000347534803490342934003472340034FC
:10242000E9340034EB3480348134903428349134EE
:1024300030340034EB340034F03400347B348034F6
:10244000813490342D349134353400347734003471
:10245000F53400349034803481340034673490345F
:102460001F3491342B349234303493343434043464
:10247000E234803481348234833490342B34913488
:1024800032340434E234803481349034243491344E
:10249000283492342B349334303409342734803444
:0824A000813482348334F034EE
:1024A800E534EE347C34E134D434D434E234C83402
:1024B8009C34BD34F834B234EC34A83471349F34CD
:1024C8007E3496340C348E34133486348D347E3412
:1024D80073347734BE3470346A346A347134643493
:1024E800CE345E347C34593476345434B9344F3471
:1024F8003F344B34063447340A34433447343F348A
:10250800BA343B345F3438343534353439343234C2
:1025180067342F34BE342C343B342A34DD3427342A
:10252800A03425348334233485342134A4341F342F
:10253800DD341D3430341C349B341A341D341934C2
:10254800B43417345F3416341E341534EF3413346E
:10255800D0341234C2341134C3341034D2340F346A
:10256800EF340E3418340E344E340D348F340C34AA
:10257800DA340B3430340B348F340A34F8340934F9
:1025880068340934E134083462340834E9340734EF
:10259800783407340C340734A73406344834063406
:1025A800ED3405349834053448340534FC340434A7
:1025B800B43404347134043431340434F534033419
:1025C800BC3403348634033454340334243403349D
:1025D800F7340234CC340234A43402347E34023466
:1025E8005A3402343934023419340234FB34013495
:1025F800DE340134C3340134AA3401349234013452
:102608007C34013466340134523401343F340134AB
:102618002D3401341D3401340D340134FE340034BA
:10262800EF340034E2340034D5340034C934003493
:10263800BE340034B3340034A9340034A034003438
:10264800973400348F340034873400347F340034B6
:1026580078340034713400346B3400346534003419
:102668005F3400345A340034553400345034003464
:102678004C3400344834003444340034403400349A
:102688003C340034393400343634003433340034C4
:10269800303400342D3400342B340034003400340A
:020000040001F9
:04000E00A00E071F1A
:00000001FF
